:100000000C9440050C9487050C9487050C94870587
:100010000C9487050C9487050C9487050C94870530
:100020000C9487050C9487050C94891F0C945C2014
:100030000C94F4160C9487050C9487050C94870592
:100040000C9487050C9487050C9487050C94870500
:100050000C9487050C945C170C9487050C94870509
:100060000C9487050C9487050C9487050C948705E0
:100070000C9487050C9487050C9487050C948705D0
:100080000C9487050C9487050C9487050C948705C0
:100090000C9487050C9487050C9487050C948705B0
:1000A0000C9487050C9487050C94870501E2013DAB
:1000B00002E2023D0029001E001F00200021002254
:1000C00000230024002500260027002D002E002BF1
:1000D00000000014001A000800150017001C00188A
:1000E000000C00120013002F00E0000000040016B6
:1000F00000070009000A000B000D000E000F00337E
:100100000034003100E1001D001B0006001900054D
:100110000011001000360037003800E10035002AD9
:1001200000E300E200000000412800300000002C45
:1001300000E200E300004200303A003B003C003D9A
:10014000003E003F004000410042004300440045A3
:100150000000700000AA005200A900010001000187
:100160000001000100010001000100010000005039
:100170000051004F000100010001000100010001D9
:100180000001000100010001000100010001000167
:100190000001000100010001000100010001004612
:1001A000004C0001000100000001004900010000B6
:1001B000002A0001000100010000303A003B003C31
:1001C000003D003E003F004000410042004300442B
:1001D00000450001000000AA005200A90001000132
:1001E0000001000100010001000100010001000008
:1001F00000500051004F000100010001000100010A
:1002000000010001000100010001000100010001E6
:1002100000010001000100010001000100010001D6
:100220000046004C000100010000004A00490001A6
:100230000000004D0001000100010001000100016B
:1002400000010001000100010001000100010001A6
:100250000001000100010000000100010001000197
:100260000001000100010001000100010001000186
:100270000000000100010001000100010001000177
:100280000001000100010001000100010001000166
:100290000001000100010001000100010001000156
:1002A0000001000100010001000100000001000147
:1002B0000001000000010001000100010001000137
:1002C0000001000100010001000100010001000126
:1002D0000001000100010001000000010001000117
:1002E0000001000100010001000100010001000106
:1002F00000010000000100010001000100010001F7
:1003000000010001000100010001000100010001E5
:1003100000010001000100010001000100010001D5
:1003200000010001000100010001000100000001C6
:1003300000010001000000010001000100010001B6
:1003400000010001000100010001000100010001A5
:100350000001000100010001000100000001000196
:100360000001000100010001000100010001000185
:100370000001000100000001000100010001000176
:100380000001000100010001000100010001000165
:100390000001000100010001000100010001000155
:1003A0000001000100010001000100010001000046
:1003B0000001000100010000000100010001000136
:1003C0000001000100010001000100010001000125
:1003D0000001000100010001000100010000000116
:1003E0000001000100010001000100010001000105
:1003F00000010001000100000001000100010001F6
:1004000000010001000100010001000100010001E4
:1004100000010001000100010001000100010001D4
:1004200000010001000100010001000100010001C4
:1004300000000001000100010000000100010001B6
:1004400000010001000100010001000100010001A4
:100450000001000100010001000100010001000095
:100460000001000100010001000100010001000184
:100470000001000100010001000000010001000175
:100480000001000100010001000100010001000164
:100490000001000100010001000100010001000154
:1004A0000001000100010001000100010001000144
:1004B0000001000000010001000100000001000136
:1004C0000001000100010001000100010001000124
:1004D0000001000100010001000100010001000114
:1004E0000000000100010001000100010001000105
:1004F00000010001000100010001000000010001F5
:1005000000010001000100010001000100010001E3
:1005100000010001000100010001000100010001D3
:1005200000010001000100010001000100010001C3
:1005300000010001000000010001000100000001B5
:1005400000010001000100010001000100010001A3
:100550000001000100010001000100010001000193
:100560000001000000010001000100010001000184
:100570000001000100010001000100010000000174
:100580000001000100010001000100010001000163
:100590000001000100010001000100010001000153
:1005A0000001000100010001000100010001000143
:1005B0000001000100010000000100010001000035
:1005C0000001000100010001000100010001000123
:1005D0000001000100010001000100010001000113
:1005E0000001000100000001000100010001000104
:1005F00000010001000100010001000100010000F4
:1006000000010001000100010001000100010001E2
:1006100000010001000100010001000100010001D2
:1006200000010001000100010001000100010001C2
:1006300000010001000100010000000100010001B3
:1006400000000001000100010001000100010001A3
:100650000001000100010001000100010001000192
:100660000001000100010000000100010001000183
:100670000001000100010001000100010001000172
:100680000000000100010001000100010001000163
:100690000001000100010001000100010001000152
:1006A0000001000100010001000100010001000142
:1006B0000001000100010001000100000001000133
:1006C0000001000000010001000100010001000123
:1006D0000001000100010001000100010001000112
:1006E0000001000100010001000000010001000103
:1006F00000010001000100010001000100010001F2
:1007000000010000000100010001000100010001E2
:1007100000010001000100010001000100010001D1
:1007200000010001000100010001000100010001C1
:1007300000010001000100010001000100000001B2
:1007400000010001000000010001000100010001A2
:100750000001000100010001000100010001000191
:100760000001000100010001000100000001000182
:100770000001000100010001000100010001000171
:100780000001000100000001000100010001000162
:100790000001000100010001000100010001000151
:1007A0000001000100010001000100010001000141
:1007B0000001000100010001000100010001000032
:1007C0000001000100010000000100010001000122
:1007D0000001000100010001000100010001000111
:1007E0000001000100010001000100010000000102
:1007F00000010001000100010001000100010001F1
:1008000000010001000100000001000100010001E1
:1008100000010001000100010001000100010001D0
:1008200000010001000100010001000100010001C0
:1008300000010001000100010001000100010001B0
:1008400000000001000100010000000100010001A2
:100850000001000100010001000100010001000190
:100860000001000100010001000100010001000081
:100870000001000100010001000100010001000170
:100880000001000100010001000000010001000161
:100890000001000100010001000100010001000150
:1008A0000001000100010001000100010001000140
:1008B0000001000100010001000100010001000130
:1008C0000001000000010001000100000001000122
:1008D000000100010012036B006500790062006FE7
:1008E000006100720064000000160371006D006B6F
:1008F000006200750069006C006400650072000011
:10090000000403090409026D00040100A0FA0904AF
:100910000000010301010009211101000122400032
:100920000705810308000A09040100010301020010
:10093000092111010001224D000705820308000A68
:100940000904020001030000000921110100012235
:1009500036000705830308000A09040300010300A9
:10096000000009211101000122390007058403203C
:1009700000011201100100000008EDFE606001009E
:100980000102000105010906A101050719E029E797
:100990001500250195087501810205081901290531
:1009A00095057501910295017503910105071900DF
:1009B00029F71500250195F875018102C005010987
:1009C00080A10185021601002603001A81002A83F6
:1009D00000751095018100C0050C0901A101850376
:1009E000160100269C021A01002A9C02751095012E
:1009F0008100C005010902A1010901A10005091931
:100A000001290515002501950575018102950175DE
:100A10000381010501093009311581257F95027592
:100A200008810609381581257F950175088106051D
:100A30000C0A38021581257F950175088106C0C012
:100A400005010906A101050719E029E7150025019F
:100A50009508750181029501750881010508190144
:100A60002905950575019102950175039101050709
:100A7000190029FF150026FF00950675088100C0A2
:100A800011241FBECFEFDAE0DEBFCDBF04B603FEF8
:100A900027C08091470290914802A0914902B091ED
:100AA0004A028730904BA740B04BD1F410924702D6
:100AB000109248021092490210924A0214BE84B762
:100AC000877F84BF0FB6F894A895809160008861F5
:100AD00080936000109260000FBEE0E0F8E309959B
:100AE00011E0A0E0B1E0E0E4F7E402C005900D926F
:100AF000AA33B107D9F722E0AAE3B1E001C01D9201
:100B0000A734B207E1F70E94D81C0C949E230C94E2
:100B10000000611107C0FC018281882319F08CEA72
:100B200090E0089590E080E008950895089581E0B0
:100B30000895089581E008950C9497050E946D0F23
:100B40002FEF84E39CE0215080409040E1F700C00B
:100B500000000C948117FF920F931F93CF93DF93A4
:100B60008C01FC01C081D1818091740181113FC051
:100B700082818823B9F1CE010E94D414F82E682F07
:100B8000CE010E947A14BE018F2D0E94F206EC0164
:100B9000B8010E949C05882309F44AC0B801CE011F
:100BA0000E940209882309F443C0C531F0E7DF073A
:100BB00018F5C23080E7D80708F04BC0C115E0E750
:100BC000DE0789F1C130D047D1F181E080933C014B
:100BD00080933D01C801DF91CF911F910F91FF904C
:100BE0000C949A05CE010E94A914F82ECCCFCE0108
:100BF0000E94D414BE01C9CFCC3380E7D80709F4D2
:100C0000ACC0CD33D04709F7F8018281882309F4BD
:100C1000CBC010923D010E94261790933B01809318
:100C20003A0180E2A7C0F801828181110E949E05ED
:100C300080E0DF91CF911F910F91FF900895F8010F
:100C400082818823A9F38091070281608093070243
:100C5000EFCFF8018281882309F4BCCF0E9485166A
:100C6000811102C00E946B160E94A21690E0909320
:100C7000390280933802FE01E350F0478091380238
:100C80008160E231F105C8F4E85BF94F0C944E2322
:100C90005A0666066A066E06720676067A067E06AC
:100CA000820686068A068E06920696069A069E0694
:100CB000A206A60680913802826080933802809155
:100CC00038020E94A6160E946D0FB2CF80913802A2
:100CD0008460F3CF809138028860EFCF8091380232
:100CE0008061EBCF809138028062E7CF809138023B
:100CF0008064E3CF809138028068DFCF8091380232
:100D00008460EACF809138028E7FD7CF80913802FD
:100D10008D7FD3CF809138028B7FCFCF80913802E7
:100D2000877FCBCF809138028F7EC7CF80913802EA
:100D30008F7DC3CF809138028F7BBFCF80913802E7
:100D40008F77BBCF809138028B7FEACF90913802AA
:100D5000892F97FB87F98058B0CFF80182818823CB
:100D600061F010923C010E94261790933B01809302
:100D70003A0182E00E94F70C5BCF80913C01811127
:100D80000FC080913A0190913B010E943217883C3C
:100D9000910530F486E20E94CC0B86E20E94A80CFA
:100DA00082E00E94FE0C44CF80913D0181110FC072
:100DB00080913A0190913B010E943217883C910545
:100DC00030F487E20E94CC0B87E20E94A80C80E2FC
:100DD000E8CF0C9451090C9453090C9499050C9488
:100DE000ED060895972F70E02DE0929F600D711D24
:100DF0001124FB0191E4899FE00DF11D1124EE0FF8
:100E0000FF1FEB54FF4F859194910895FC01EE0F65
:100E1000FF1FEB52F74F8591949108950E94F206BF
:100E20000E948108811520E4920708F08DC0811589
:100E300040E3940708F0E8C0803E910508F071C0D7
:100E4000803C910508F0CCC0883A910580F4853A41
:100E5000910508F0CAC08130910509F46EC020F0F8
:100E60008430910508F069C090E080E008958D3BE2
:100E70009105D0F7883A910509F404C1893A9105A2
:100E800009F403C18A3A910509F402C18B3A91052C
:100E900009F401C18C3A910509F400C18B3B91051D
:100EA00009F4FFC08C3B910509F4FEC08D3A910511
:100EB00009F4FDC0803B910509F4FCC08E3A910510
:100EC00009F4FBC08F3A910509F4FAC0813B910502
:100ED00009F4F9C0823B910509F4F8C0833B910500
:100EE00009F4F7C0843B910509F4F6C0853B9105F0
:100EF00009F4F5C0863B910509F4F4C0873B9105E0
:100F000009F4F3C0883B910509F4F2C0893B9105CF
:100F100009F4F1C08A3B910509F4F0C080E094E443
:100F200008958F3F910509F048F4803F910508F03E
:100F300067C0883E910508F097CF0895811520E29B
:100F4000920708F05FC00895811543E5940760F5A6
:100F5000811522E5920708F062C0811541E59407EA
:100F600008F058C0811520E5920708F450C09C0194
:100F700054E0369527955A95E1F7922F9370482FB4
:100F8000437021E030E002C0220F331F4A95E2F7A0
:100F90003C68392B86958695837040E2849FC0011A
:100FA0001124822B932B0895811545E5940750F465
:100FB000811524E5920708F446C0982F8827846F8E
:100FC000906A0895811546E5940708F450C09C0185
:100FD00030569F702115304108F046CF9062089539
:100FE000805C91090E9406070895853A910509F4ED
:100FF00043C0863A910509F042C082E890E4089522
:10100000906508959F70EECF9927906C08959F701A
:10101000906A0895982F8827816F906A0895AC018F
:101020004370552721E030E002C0220F331F4A955C
:10103000E2F78695869540E2849FC0011124822BB9
:10104000932B9C680895AC014370552721E030E054
:1010500002C0220F331F4A95E2F78695869540E23B
:10106000849FC0011124822B932B9A680895982F96
:10107000882788279F71B2CF81E890E4089583E89C
:1010800090E4089582EE94E4089589EE94E408953E
:101090008AEE94E4089585EB94E4089586EB94E455
:1010A000089583EB94E4089584EB94E4089587EB2A
:1010B00094E408958CEC94E408958DEC94E4089500
:1010C00083E895E408958AE895E4089582E995E433
:1010D000089584E995E4089581E296E4089583E211
:1010E00096E4089584E296E4089585E296E40895EE
:1010F00086E296E4089587E296E408958AE296E40B
:101100001CCF8238910549F1B0F48133910509F47F
:101110005CC048F48932910509F452C08A329105C5
:1011200009F458C008958533910509F444C0893302
:10113000910599F00895833E910531F138F4803E90
:10114000910591F0823E9105B1F00895863E91059A
:1011500011F1873E910541F10895209138022370E5
:10116000C9F080EE90E008952091380220FF12C06F
:1011700089E390E008952091380222FF0BC024FFFC
:101180002EC090E080E008952091380222FD2AC010
:1011900024FDF7CF08952091380223FFFBCF24FDD3
:1011A000F0CF87EE90E008952091380223FFF0CF32
:1011B00086EE90E008952091380225FD16C008952E
:1011C0002091380225FD14C008952091380226FD93
:1011D00012C008952091380226FD10C0089583EEB4
:1011E00090E0089582EE90E0089589E290E00895FD
:1011F00085E390E008958AE290E0089581E390E02D
:10120000C9CF08950F931F93CF938C01FB01828167
:10121000811106C0C1E08C2FCF911F910F910895CD
:10122000C0914B01C11125C00531104799F70E94AB
:10123000010981E080934B010E94261790934A0197
:101240008093490110923E011092400110923F019B
:1012500010924201109241011092440110924301F8
:1012600010924601109245011092480110924701D8
:10127000D2CF8091490190914A010E943217883C57
:10128000910540F680913E01E82FF0E0EE0FFF1F40
:10129000E15CFE4F118300838F5F80933E01C0E0CD
:1012A000BACF0C9495050C949605CF93DF9385B730
:1012B000806885BF85B7806885BFA0E2B1E045E260
:1012C00051E0C1E0D0E08D91E82FE295EF70F0E0C1
:1012D00061A18F709E0101C0220F8A95EAF7922FBB
:1012E0009095962391A382A1822B82A34A175B0734
:1012F00051F7A3E1B1E061E070E08D91E82FE29554
:10130000EF70F0E041A18F709B0101C0220F8A9520
:10131000EAF7922F9095942391A382A1822B82A326
:1013200081E0A032B80749F7109257011092560198
:1013300010924D0110924C011092590110925801D7
:1013400010924F0110924E0110925B0110925A01BF
:10135000109251011092500110925D0110925C01A7
:10136000109253011092520110925F0110925E018F
:101370001092550110925401DF91CF910C94E9061F
:101380006F927F929F92AF92BF92CF92DF92EF9235
:10139000FF920F931F93CF93DF93CCE4D1E000E251
:1013A00011E0EE24E394F12CBB24B394C880D980DF
:1013B00019821882D8018D918D01E82FE295EF7086
:1013C000F0E091A18F70970101C0220F8A95EAF792
:1013D000892F822B81A382A1A22EA0948A2182A38D
:1013E000B0EABA95F1F783E1682E81E0782E90E0BB
:1013F00080E0D3017D913D01472F42954F7050E031
:10140000DA0190969C90488159817F70D70102C083
:10141000AA0FBB1F7A95E2F7BD01692109F06FC0E1
:10142000B701082E02C0660F771F0A94E2F7462B19
:10143000572B5983488301968D309105D1F681A1B0
:101440008A2181A382A1282B22A388819981C81691
:10145000D90641F0B09260010E9426179093620174
:10146000809361012296B1E005321B0709F09ECFFF
:1014700080916001882391F18091610190916201D6
:101480000E943217069750F180914C0190914D01C6
:10149000909357018093560180914E0190914F0196
:1014A000909359018093580180915001909151017E
:1014B00090935B0180935A01809152019091530166
:1014C00090935D0180935C0180915401909155014E
:1014D00090935F0180935E01109260010E94EB0681
:1014E00081E0DF91CF911F910F91FF90EF90DF90FE
:1014F000CF90BF90AF909F907F906F90089570E0D5
:1015000060E095CFE82FF0E0EE0FFF1FEA5AFE4FA4
:101510008081918108950895909368018093670177
:101520000895E0916701F0916801309721F00190F2
:10153000F081E02D099480E00895E0916701F09139
:101540006801309721F00280F381E02D099408951D
:10155000E0916701F0916801309721F00480F581F6
:10156000E02D0994089520916501309166012817B6
:10157000390771F09093660180936501E0916701EE
:10158000F0916801309721F00680F781E02D0994F1
:10159000089520916301309164012817390771F093
:1015A0009093640180936301E0916701F091680179
:1015B000309721F00084F185E02D09940895089575
:1015C0000C94DF0A0E941D170E9455090C94EE1717
:1015D0005F926F927F928F929F92AF92BF92CF92C3
:1015E000DF92EF92FF920F931F93CF93DF93CDB7CC
:1015F000DEB72A970FB6F894DEBF0FBECDBF0E94AC
:10160000C0099AE6A92E91E0B92E10E000E08824E6
:101610008394912C502E802F0E94820A7C01F50128
:10162000C190D1905F01C816D90609F45EC08091BF
:10163000070281FD0E948B0A90E080E0CE24DF2427
:101640003401082E02C0660C771C0A94E2F796015A
:1016500026213721232B09F443C08E835F82E620A5
:10166000F72081E0EF2809F480E088870E942617A0
:101670008160782F9A8789874E815F8168858A8506
:101680000E94A20B000F111FF801E659FE4F808146
:10169000918168267926718260820E94721A0E9466
:1016A000910A909169018917B9F10E94910A80937A
:1016B00069012A960FB6F894DEBF0FBECDBFDF9149
:1016C000CF911F910F91FF90EF90DF90CF90BF903F
:1016D000AF909F908F907F906F905F900C94EF06EB
:1016E00001968D30910509F0ABCF0F5F1F4F05308C
:1016F000110509F08FCF8FEF89838A831B820E94A7
:1017000026178160782F9D838C8349815A816B8154
:101710008D810E94A20BC1CF2A960FB6F894DEBF2E
:101720000FBECDBFDF91CF911F910F91FF90EF9032
:10173000DF90CF90BF90AF909F908F907F906F90F1
:101740005F900895CF93DF93CDB7DEB72B970FB699
:10175000F894DEBF0FBECDBF4F83588769877A8765
:101760008B871E821D8285E0FE013796DE01119671
:1017700001900D928A95E1F749815A816B817C81B4
:101780008D819E812B960FB6F894DEBF0FBECDBF24
:10179000DF91CF910C941F12882309F4D8C08238AE
:1017A00071F40E94910A81FDD2C089E30E947415F0
:1017B0000E943C1689E30E94B1150C943C168338B4
:1017C00059F40E94910A80FDC2C083E50E947415FD
:1017D0000E943C1683E5EFCF843859F40E94910AA9
:1017E00082FDB5C087E40E9474150E943C1687E410
:1017F000E2CF9CEF980F913A18F40E947415DDCF58
:1018000090E2980F983050F4877091E001C0990FE2
:101810008A95EAF7892F0E94F315CFCF9BE5980FA1
:10182000933070F4853A31F0863A39F083E890E0ED
:101830000C94B30A81E890E0FBCF82E890E0F8CF07
:1018400098E5980F953108F082C0883A09F440C0B5
:10185000893A09F440C08A3A09F440C08B3A09F445
:1018600040C08C3A09F440C08B3B09F440C08C3B2B
:1018700009F440C08D3A09F440C0803B09F440C0EF
:101880008E3A09F440C08F3A09F440C0813B09F414
:1018900040C0823B09F440C0833B09F440C0843B14
:1018A00009F440C0853B09F440C0863B09F440C0C0
:1018B000873B09F440C0883B09F440C0893B09F4E8
:1018C00040C08A3B09F440C090E080E00C94C90A13
:1018D00082EE90E0FBCF89EE90E0F8CF8AEE90E0C8
:1018E000F5CF85EB90E0F2CF86EB90E0EFCF83EB86
:1018F00090E0ECCF84EB90E0E9CF87EB90E0E6CF8F
:101900008CEC90E0E3CF8DEC90E0E0CF83E891E0C9
:10191000DDCF8AE891E0DACF82E991E0D7CF84E9A0
:1019200091E0D4CF81E292E0D1CF83E292E0CECFBA
:1019300084E292E0CBCF85E292E0C8CF86E292E0EB
:10194000C5CF87E292E0C2CF8AE292E0BFCF08958E
:10195000882309F44BC0823871F40E94910A81FFF8
:1019600045C089E30E9474150E943C1689E30E94D9
:10197000B1150C943C16833859F40E94910A80FFEB
:1019800035C083E50E9474150E943C1683E5EFCFB5
:10199000843859F40E94910A82FF28C087E40E948B
:1019A00074150E943C1687E4E2CF9CEF980F913AA1
:1019B000F0F290E2980F983050F4877091E001C0F7
:1019C000990F8A95EAF7892F0E94F915D2CF9BE5E6
:1019D000980F933020F490E080E00C94B30A885A7A
:1019E000853120F490E080E00C94C90A08958823A2
:1019F00021F00E94F3150C943C160895882321F0E1
:101A00000E94F9150C943C1608958F929F92AF9204
:101A1000BF92DF92EF92FF920F931F93CF93DF93CA
:101A20007C01D62FC72FFC01058102950F70128112
:101A300011110E9412160E946D15D82E882371F084
:101A4000112321F180E28D0F883000F182E00E94A5
:101A500057150E946D1591E0D82ED926EC2FE295EE
:101A6000EF70F0E0EA5CF24F0C944E23480D480D05
:101A7000980D980DDA0DF60D750D750D010E750D9D
:101A8000990E990E0C0F750D750D150FD12CE6CF13
:101A90000C2F0F70C07F11F00295007F1123A9F069
:101AA000002359F080E28D0F883010F0D11109C069
:101AB000802F0E94F3150E943C168D2F0E94CC0BA4
:101AC00014C0802F0E940416F6CF8D2F0E94A80C00
:101AD000002359F080E28D0F883010F0D11124C01E
:101AE000802F0E94F9150E943C16DD2009F4A4C144
:101AF0000E944A1580FDA0C1F70112820E94441580
:101B00000E94BE13C7010E94280F0E944415DF9156
:101B1000CF911F910F91FF90EF90DF90BF90AF900A
:101B20009F908F900C94DF13802F0E940A16DBCFBA
:101B3000FC2FFF70BF2EC07FC03219F0B29480EF2F
:101B4000B822DD2369F0D13029F1112369F1002396
:101B500059F0F701858180FFB0CF8F70858304C075
:101B6000112361F0011104C08B2D0E94F70CBDCF31
:101B70008B2D0130D1F70E942616B7CF011106C078
:101B80000E9429168B2D0E94FE0CAFCF013009F464
:101B9000ACCFF6CF112321F0063008F0A6CFE4CF6A
:101BA000053008F0A2CFEECF002361F38D2F0E9405
:101BB000A80C9BCF8C2F86958695837069F0813019
:101BC00009F093CF8D2F9C2F9370111102C090E0DC
:101BD00080E00E94C90A89CF8D2F9C2F937011112C
:101BE00002C090E080E00E94B30A7FCF8D2F1123C6
:101BF00029F00E947B190E94671A77CF0E94E3198F
:101C0000FACF8C2F837009F047C011116ECF2D2FA2
:101C1000229526952770220F220F6D2F6F70862E2A
:101C2000912CB12CA12C022E04C0880C991CAA1C4A
:101C3000BB1C0A94D2F760E070E0CB01D4FF0FC068
:101C40006FE070E080E090E004C0660F771F881FAF
:101C5000991F2A95D2F76095709580959095C695B5
:101C6000C695C370C23051F080F4682979298A2959
:101C70009B29C13071F00E94671337CF68297929F9
:101C80008A299B290E94831330CF0E946713C501C4
:101C9000B4010E944B1329CF8695112311F08C2F8C
:101CA0008170882309F421CF2D2F22952695277046
:101CB000220F220F6D2F6F70862E912CB12CA12C2C
:101CC000022E04C0880C991CAA1CBB1C0A94D2F7D3
:101CD00060E070E0CB01D4FF0FC06FE070E080E007
:101CE00090E004C0660F771F881F991F2A95D2F7CE
:101CF0006095709580959095C695C695C370C230D5
:101D000051F080F4682979298A299B29C13071F022
:101D10000E944114EACE682979298A299B290E94C8
:101D20005D14E3CE0E944114C501B4010E94251444
:101D3000DCCEE0E2ED0FE53108F062C0F0E0ED55F9
:101D4000F14F0C944E23B80EB80EB80EB80EB80E64
:101D5000B80EB80EB80EB80EB80EB80EB80EB80E53
:101D6000B80EB80EB80EC50ED30EDA0EE10EEB0E9D
:101D7000DF708C2F8F71112321F00E94BE138D2FE5
:101D8000F4CE0E94DF138D2FFECE112341F00530DB
:101D900008F0ABCE8C2F8F710E940414A6CE0630B3
:101DA00008F0A3CEF7CF8C2F8F71112339F00E944A
:101DB000BE139BCE8C2F8F711123C9F30E94DF13AA
:101DC00094CE112329F08C2F8F710E94A9138DCEF0
:101DD0000E949F138ACE112349F0CF718C2F0E944D
:101DE000BE1363E08C2F0E944E157FCE81E00E94CF
:101DF0005715023008F479CE82E00E94571575CE4F
:101E0000112329F0011159CE8C2F8F71D0CF0111E0
:101E1000CDCE8C2F8F71D2CF4C2F4F706D2FC7012D
:101E20000E9489050E94C81260CE4C2F4F706D2F02
:101E3000C7010E94F10659CEDF91CF911F910F91FA
:101E4000FF90EF90DF90BF90AF909F908F9008959C
:101E50000F931F93CF93DF93EC01988189812B819E
:101E60003C81232B39F08F3F19F481E09F3F19F01B
:101E700080E001C081E080FD17C0CE010E94AB056B
:101E8000882391F0688179818A810E9420158C01D4
:101E90000E9479140E944013B801CE01DF91CF91C6
:101EA0001F910F910C94050DDF91CF911F910F9110
:101EB00008950E9412160E9423160E94E5150E94A2
:101EC0003C160E94141B0E94671A90E080E00E945A
:101ED000B30A90E080E00C94C90A0E9401160C94A9
:101EE000590F0E941615E92FE295EF70E250EE307F
:101EF000E0F4F0E0E258F04F0C944E238C0F8C0F7E
:101F0000950F950F970F950F950F950F8C0F8C0FC1
:101F10009C0F950F950F9C0F803F19F020F4803E89
:101F200020F481E00895843FE1F380E00895803E4D
:101F3000C0F3813FD1F7F5CF93FB882780F908954F
:101F4000CF93DF9300D000D01F92CDB7DEB70F90B4
:101F50000F900F900F900F90DF91CF910895CF9336
:101F6000DF9300D000D000D0CDB7DEB726960FB6F5
:101F7000F894DEBF0FBECDBFDF91CF9108951F93C0
:101F8000CF93DF93C091750116E0809176018C1399
:101F900004C0DF91CF911F910895D0E01C9FF00104
:101FA0001D9FF00D1124E958FE4F4081518162813F
:101FB0007381848195810E94AF0F2196C770E5CF10
:101FC0004091A7015091A8016091A9017091AA01C7
:101FD0008091AB019091AC010C94AF0F1F93CF9304
:101FE000DF938091AC01807FD1F48091A901882397
:101FF000B1F080917501D0917601B091A701C091A7
:10200000A8014091AA015091AB01A1E0BF3F09F0A6
:10201000A0E0BA016095709516E0D81304C0DF9176
:10202000CF911F91089521E04115510521F02A2FEC
:10203000CF3F09F020E090E020FD38C0189FF0016C
:10204000199FF00D1124E958FE4F21812C132EC049
:1020500020812B132BC02281211128C023813481A0
:102060002417350700F1241B350B283C3105F0F40B
:102070002091AC012F7020612093AC0126E0289FB5
:10208000F001299FF00D1124E458FE4F80818F70DC
:102090008061808387EA91E00E94280FDF91CF91D1
:1020A0001F910C94BF0F260F371FDFCF019687704B
:1020B000B4CFAF92BF92CF92DF92EF92FF920F9385
:1020C0001F93CF93DF93CDB7DEB761970FB6F89428
:1020D000DEBF0FBECDBF8C0185E0F801DE011D968D
:1020E00001900D928A95E1F7D8014C9111965C917F
:1020F00011971296EC903091A7016091A801809100
:10210000AA019091AB0121E0009731F06F3F19F4E3
:1021100021E03F3F09F020E0B22FB170BB2E20FD3F
:1021200080C1F801C380D480A090A901AA2009F43D
:1021300027C1C816D906D0F1D601A81BB90BCD010D
:10214000FF24F394883C910508F0F12C8091AC01B8
:10215000982F907FFF2009F4CAC0911187C0FE2CF0
:10216000651329C0341327C0E11025C08F7080612A
:102170008093AC010E94E00F87EA91E00E94280F53
:102180008091AC01F80185838F2D61960FB6F8948C
:10219000DEBF0FBECDBFDF91CF911F910F91FF909A
:1021A000EF90DF90CF90BF90AF900895809590957D
:1021B0008C0D9D1DC5CF81E0CD2831F05F3F19F416
:1021C00081E04F3F09F080E080FD24C081E08E2552
:1021D000F82FF170DF2E80FF3FC0809175012091B4
:1021E000760136E0821318C04D875E878D859E8507
:1021F0000E941615292F22952F70223008F12430C5
:1022000030F59F7009F1D80115969C91907FE1F40B
:10221000FB2CBACF80E0DCCF90E0389FF001399FF3
:10222000F00D1124E958FE4F6181561306C06081FC
:10223000461303C062816E110FC001968770D2CF22
:102240009F7011F0882321F3805E883008F3C80165
:102250000E94280FBD2CDCCFEE2009F495CF809191
:10226000AC0181608093AC01F12C8ECF651312C05C
:10227000341310C0E1100EC0F8018583C8010E941C
:10228000280F86E0F801A7EAB1E001900D928A9547
:10229000E1F741C04D875E878D859E850E94710F55
:1022A000882309F4C8C0EE2009F4C5C08091AC01B0
:1022B000803270F02091A7013091A80138872F83D8
:1022C0001986DB86CA868C87CE0107960E94280F66
:1022D00086E0F801A7EAB1E001900D928A95E1F756
:1022E0000E94EE0F0E94E00FFF24F3944DCF911156
:1022F00015C07C2DD98AC88A6E2D89890E94A00FAD
:1023000087EA91E00E94280F86E0E7EAF1E0DF012A
:102310001D928A95E9F70E94E00F36CF651312C02F
:10232000341310C0E1100EC0F8018583C8010E946B
:10233000280FE7EAF1E086E0DF011D928A95E9F7D0
:10234000FA2C22CF4D875E878D859E850E94710F66
:10235000882309F470C0EE2009F46DC08091AC01AF
:10236000803208F4B5CF2091A7013091A8013A83BB
:1023700029831B82DD82CC828E83CE010196A6CF7B
:10238000C816D90638F1F601E81BF90BCF01F12C7C
:10239000883C910508F03DC0FE2CEE2009F44BC0AE
:1023A000651326C0341324C08091AC0180FD17C092
:1023B000982F907FA1F0D80115968C931597903F98
:1023C00009F45CCF982F907F905F8F70892B1596C2
:1023D0008C9354CF809590958C0D9D1DD8CF86E021
:1023E000F801A7EAB1E001900D928A95E1F7CCCE11
:1023F0004D875E878D859E850E94710F811168CF04
:102400008091AC0181608093AC01C8010E94280FCB
:10241000BBCE7C2DD98AC88A6E2D89890E94A00FD7
:1024200073CFEE2041F04D875E878D859E850E949B
:10243000710F81114DCFC8010E94280F55CF1F93F6
:10244000CF93DF93CDB7DEB72C970FB6F894DEBFEE
:102450000FBECDBF4F83588769877A878B879C874C
:10246000CE0107960E945910882309F442C09F812B
:1024700088852A853B85232B39F08F3F19F481E02D
:102480009F3F19F080E001C081E080FD08C04F81CE
:10249000588569857A858B859C850E94AF0F16E0EB
:1024A0008091750190917601891709F467C0819F29
:1024B000C001112489589E4F0E945910882309F4A5
:1024C0005DC0E09175011E9FF0011124E958FE4F97
:1024D0004081518162817381848195810E94AF0F17
:1024E0008091750190E0019687709927809375011E
:1024F000D7CF86E0FE013796DE01119601900D924E
:102500008A95E1F79F8188852A853B85232B39F0C1
:102510008F3F19F481E09F3F19F080E001C081E016
:1025200080FDBDCF2091760130E0C9010196877012
:102530009927409175014817190699F096E0929FE6
:10254000D001939FB00D1124A958BE4FFE013196C2
:1025500001900D929A95E1F7809376010E94BF0F4A
:102560009ECF0E946D0F109276011092750186E049
:10257000E7EAF1E0DF011D928A95E9F72C960FB6A4
:10258000F894DEBF0FBECDBFDF91CF911F910895AC
:10259000EF92FF920F931F93CF93DF938C01892BC0
:1025A00081F0F12CEE24E394E8012196F801849166
:1025B000843770F4843008F05FC08130B1F082302D
:1025C000A1F1DF91CF911F910F91FF90EF900895AE
:1025D000853709F44CC008F43DC09CE7980F90374C
:1025E00080F78F770E94A80C49C00E5F1F4FFE0135
:1025F000849190E2980F983060F48770FE2D01C0AE
:10260000FF0F8A95EAF78F2F0E9415160E943C163D
:1026100002C00E94CC0B8F2D815030F2EFE9FFE019
:102620003197F1F700C00000F7CF0E5F1F4FFE019A
:10263000849190E2980F983050F48770FE2D01C07D
:10264000FF0F8A95EAF78F2F0E941B16DFCF0E949B
:10265000A80CE1CF0E5F1F4FFE01C491C150D8F20C
:102660008FE99FE00197F1F700C00000F7CF0E5F00
:102670001F4FFE01F490CFCF0E94CC0B8E01CBCF29
:1026800008956093DE017093DF018093E0019093E1
:10269000E1010C94590F0F931F930091DE011091EB
:1026A000DF012091E0013091E101DC01CB01802BC1
:1026B000912BA22BB32B8093DE019093DF01A0938B
:1026C000E001B093E1011F910F910C94590F0F930A
:1026D0001F930091DE011091DF012091E001309104
:1026E000E101DC01CB0180239123A223B32380935A
:1026F000DE019093DF01A093E001B093E1011F910F
:102700000F910C94590F0F931F930091DE011091BC
:10271000DF012091E0013091E101DC01CB01802754
:102720009127A227B3278093DE019093DF01A09326
:10273000E001B093E1011F910F910C94590F109299
:10274000DA011092DB011092DC011092DD010C9491
:10275000590F41E050E060E070E004C0440F551FA5
:10276000661F771F8A95D2F74093DA015093DB01F9
:102770006093DC017093DD010C94590F41E050E04F
:1027800060E070E004C0440F551F661F771F8A95F4
:10279000D2F78091DA019091DB01A091DC01B09138
:1027A000DD01842B952BA62BB72B8093DA01909318
:1027B000DB01A093DC01B093DD010C94590F41E0E3
:1027C00050E060E070E004C0440F551F661F771FA3
:1027D0008A95D2F740955095609570958091DA0171
:1027E0009091DB01A091DC01B091DD018423952360
:1027F000A623B7238093DA019093DB01A093DC0139
:10280000B093DD010C94590F41E050E060E070E0BE
:1028100004C0440F551F661F771F8A95D2F7809119
:10282000DA019091DB01A091DC01B091DD018427F8
:102830009527A627B7278093DA019093DB01A09311
:10284000DC01B093DD010C94590F0F931F9300919D
:10285000DA011091DB012091DC013091DD01DC0116
:10286000CB01802B912BA22BB32B8093DA01909379
:10287000DB01A093DC01B093DD011F910F910C945B
:10288000590F0F931F930091DA011091DB012091F2
:10289000DC013091DD01DC01CB0180239123A223F7
:1028A000B3238093DA019093DB01A093DC01B09312
:1028B000DD011F910F910C94590F0F931F930091FD
:1028C000DA011091DB012091DC013091DD01DC01A6
:1028D000CB0180279127A227B3278093DA01909319
:1028E000DB01A093DC01B093DD011F910F910C94EB
:1028F000590F08952DE0929F800D1124982F977005
:1029000071E001C0770F9A95EAF7869586958695CE
:1029100025E0829FC001112450E040E0A62FB0E0E6
:10292000FC01E40FF51FE355FE4F60819D01042E6D
:1029300002C0369527950A94E2F721702195262743
:102940002723262720834F5F5F4F4530510541F7EE
:1029500008952DE0929F800D1124982F97708695F1
:102960008695869525E0829FA001112470E060E0A5
:1029700080E0FA01E60FF71FE355FE4F208130E0BB
:10298000092E02C0369527950A94E2F72170332765
:10299000062E01C0220F0A94EAF7822B6F5F7F4F49
:1029A0006530710531F70895BF92CF92DF92EF92B3
:1029B000FF920F931F93CF93DF938C01C090DA01A6
:1029C000D090DB01E090DC01F090DD018091DE0130
:1029D0009091DF01A091E001B091E101C82AD92ACC
:1029E000EA2AFB2ACFE1D0E0BC2ED701C6010C2E8B
:1029F00004C0B695A795979587950A94D2F780FD60
:102A00000EC0219788F7B12C8B2DDF91CF911F91AC
:102A10000F91FF90EF90DF90CF90BF900895B80195
:102A20008C2F0E940E07019761F3EECFCF93DF93B7
:102A3000EC010E94D414BE01DF91CF910C940E07DB
:102A40001F93CF93DF93EB0190917401992331F0A1
:102A5000CB01DF91CF911F910C941615882379F04B
:102A6000CB010E94D414182F682FCE010E947A1433
:102A7000BE01812FDF91CF911F910C940E07CB01E6
:102A80000E94A914182FF4CF8091E20185958595B5
:102A9000859508958091E2018770089598E0899F57
:102AA00090011124622B6093E2010C94BE1390916B
:102AB000E201809589238093E201282F277061F439
:102AC000282F082E000C330B9217130629F085953A
:102AD000859585950C94DF1308959091E201977088
:102AE00081E009F480E00895909112019923E1F0CA
:102AF0009091380297FF18C0E82FE695E695E69585
:102B0000EF3139F12091000130910101E20FF32FF3
:102B1000F11D877021E030E001C0220F8A95EAF7AD
:102B20008181822B818308952091000130910101E0
:102B3000F90132969FEF40E05191851751F09F3F88
:102B400019F4511101C0942F4F5F4E31A9F79F3FE7
:102B500009F40895290F311D97FD3A95F9018283F3
:102B60000895909112019923F1F09091380297FF06
:102B70001AC0E82FE695E695E695EF3129F1209108
:102B8000000130910101E20FF32FF11D282F277072
:102B900081E090E001C0880F2A95EAF78095918145
:102BA0008923818308952091000130910101F90169
:102BB0003296205E3F4F9191891303C0DF01119738
:102BC0001C92E217F307B9F7089581E090E0E091D5
:102BD0000001F0910101E80FF91F10820196803287
:102BE0009105A9F7089590910602892B809306021A
:102BF0000895982F9095809106028923809306026C
:102C0000089510920602089590910502892B8093F1
:102C100005020895982F909580910502892380934D
:102C20000502089510920502089590910402892BDF
:102C3000809304020895982F90958091040289232F
:102C40008093040208951092040208958093E30192
:102C500008951092E301089520910001309101013F
:102C6000F9013196205E3F4F80E0919191118F5F85
:102C7000E217F307D1F70895E0910001F091010107
:102C8000809106028083E0910001F0910101808132
:102C900090910502892B8083E0910001F091010160
:102CA000808190910402892B80839091E301992384
:102CB00061F0E0910001F09101018081892B808316
:102CC0000E942C1681111092E301809100019091D5
:102CD00001010C949D0A6DEE7EEF90E080E00E9471
:102CE000882360E082E090E00E94762360E083E049
:102CF00090E00E94762360E084E090E00E947623DA
:102D000060E085E090E00C94762390E080E00E9403
:102D1000702321E08D3E9E4F09F020E0822F089520
:102D200082E090E00C946823682F82E090E00C949D
:102D3000762383E090E00C946823682F83E090E092
:102D40000C94762384E090E00C946823682F84E050
:102D500090E00C94762380913E02843039F11092F9
:102D6000080288E190E020E40FB6F894A8958093DB
:102D700060000FBE2093600080E00E94EF0683B7E2
:102D8000817F846083BF83B7816083BF7894889597
:102D900083B78E7F83BF0FB6F894A89580916000AB
:102DA000886180936000109260000FBE08950895BE
:102DB0000895CF930E94D7160E94C0090E94D8168A
:102DC000C0E08C2F0E94820A892B31F4CF5FC5307E
:102DD000C1F780E0CF91089581E0FCCF0E946D0F94
:102DE0000E94910A0C94EF061F920F920FB60F9259
:102DF00011248F939F93AF93BF9380910802811109
:102E000013C08091340290913502A0913602B091A6
:102E100037024196A11DB11D809334029093350273
:102E2000A0933602B0933702BF91AF919F918F91DB
:102E30000F900FBE0F901F90189582E084BD93E015
:102E400095BD9AEF97BD80936E0008952FB7F894C3
:102E50008091340290913502A0913602B0913702F0
:102E60002FBF0895CF92DF92EF92FF920F931F939F
:102E70002FB7F89440913402509135026091360298
:102E8000709137022FBF6A017B01EE24FF248C0171
:102E900030E020E0C016D106E206F30650F0481BF1
:102EA000590BCA011F910F91FF90EF90DF90CF90C7
:102EB000089541505109F3CF1F920F920FB60F9210
:102EC00011248F939F93AF93BF938091340290917D
:102ED0003502A0913602B09137020196A11DB11DB5
:102EE0008093340290933502A0933602B093370258
:102EF000BF91AF919F918F910F900FBE0F901F9038
:102F000018950E940E1FF8942FEF87EA91E6215042
:102F100080409040E1F700C0000087E090EBDC01CA
:102F20008093470290934802A0934902B0934A02CB
:102F300088E19CE00FB6F894A895809360000FBEDE
:102F400090936000FFCFAF92BF92CF92DF92EF924B
:102F5000FF920F931F93CF93C0E0CC24C394D12C46
:102F6000E82EF12C8C2F0E94820A5C0110E000E018
:102F7000C601002E02C0880F991F0A94E2F78A2129
:102F80009B21892B99F40F5F1F4F0D30110581F79D
:102F9000CF5FC53039F780E0CF911F910F91FF903F
:102FA000EF90DF90CF90BF90AF900895602F7C2F6F
:102FB00080E00E94F206E816F90629F781E0ECCFDE
:102FC000CF93C82F8CE20E94A317882321F08C2F67
:102FD000CF910C94A31780E0CF910895CF930E94D6
:102FE0008516811102C00E946B16C5E6C15009F01A
:102FF000D1C089E20E94E0178111F8C08AE20E94E4
:10300000E01781110E946B1685E00E94E017811184
:103010000E9481170E9490168093070287E00E9409
:10302000E017882371F08BE10E94E017882309F4F0
:10303000BAC090910702892F8D7F91FF82608093A3
:103040000702809107020E9494160E94A21690E047
:10305000909339028093380280EE0E94E017882313
:1030600041F090913802892F8E7F90FF816080938C
:10307000380289E30E94E017882341F090913802DA
:10308000892F8D7F91FF82608093380282EE0E94AB
:10309000E017882341F090913802892F8B7F92FFAF
:1030A00084608093380286EE0E94E017882341F006
:1030B00090913802892F877F93FF88608093380230
:1030C00083EE0E94E017882341F090913802892F07
:1030D0008F7E94FF80618093380285E30E94E01721
:1030E000882341F090913802892F8F7D95FF80626F
:1030F0008093380281E30E94E017882341F0909189
:103100003802892F8F7B96FF80648093380281E19B
:103110000E94E017882341F090913802892F97FB95
:1031200087F9805880933802809138020E94A61651
:1031300087E20E94E017C82F8EE10E94E0178111FC
:10314000C2608FE10E94E0178111C46080E20E949A
:10315000E0178111C86081E20E94E0178111C0610F
:1031600082E20E94E0178111C06283E20E94E017B0
:103170008111C06484E20E94E017882389F1C0684D
:103180008C2F0E949D166C2F70E090E080E0CF9114
:103190000C9441130E94C0098FE39CE90197F1F759
:1031A00000C0000023CF8EE00E94E017882339F092
:1031B00090910702892F8B7F92FF846040CF80E13E
:1031C0000E94E01790910702882329F0892F877FBA
:1031D00093FF886034CF892F8E7F90FF81602FCF3F
:1031E000C111CECF0E949916682FCECFCF910895EE
:1031F00080910B0280FF12C06091050185E0689FFD
:10320000B0011124759567957595679560387105BE
:10321000A8F561157105A1F1862F089581FF09C0F8
:103220006091050185E0689FB0011124759567954F
:10323000EDCF82FF07C06091050185E0689FB00176
:103240001124E4CF20910C022223A9F090910401D3
:103250006091050185E0689FB00111242917B0F63F
:10326000269FA001279F500D1124692F70E0CA01ED
:103270000E943A23CBCF65E070E0CECF8FE7089570
:1032800081E0089580910B0280FF0CC060910301E2
:1032900070E075956795759567956115710549F1AC
:1032A000862F089581FF06C06091030170E0759537
:1032B0006795F3CF6091030182FD0BC090910C02E2
:1032C0009923A1F06091020180910301961738F0D3
:1032D000682F70E06038710500F38FE70895899FCB
:1032E000C001112470E00E943A23F4CF61E070E045
:1032F000D7CF81E00895803F31F40E94F81881957E
:1033000080930F020895813F19F40E94F818F8CFB6
:10331000823F31F40E94F818819580930E0208953F
:10332000833F19F40E94F818F8CF893F29F40E94CE
:1033300042198093100208958A3F21F40E94421995
:103340008195F7CF8B3F31F40E944219819580938C
:10335000110208958C3F19F40E944219F8CF843F5E
:1033600031F480910D02816080930D020895853FB4
:1033700021F480910D028260F7CF863F21F4809185
:103380000D028460F1CF873F21F480910D028860A7
:10339000EBCF883F21F480910D028061E5CF8D3F16
:1033A00031F480910B02816080930B0208958E3F6F
:1033B00021F480910B028260F7CF8F3FB9F78091A3
:1033C0000B028460F1CF803FC1F480910F0287FD32
:1033D00010920F0280910E0281110EC080910F0297
:1033E00081110AC080911002811106C080911102E2
:1033F000811102C010920C020895813F29F480913E
:103400000F0218162CF3E6CF90910E02823F29F49A
:1034100097FFE0CF10920E02DDCF833F19F419160B
:10342000CCF3D8CF893F39F480911002181694F666
:1034300010921002CFCF8A3F29F48091100287FFAB
:10344000C9CFF6CF8B3F39F48091110287FFC2CFED
:1034500010921102BFCF8C3F29F4809111021816EF
:10346000BCF3B8CF843F31F480910D028E7F8093FE
:103470000D02B0CF853F21F480910D028D7FF7CFF3
:10348000863F21F480910D028B7FF1CF873F21F49D
:1034900080910D02877FEBCF883F21F480910D0250
:1034A0008F7EE5CF8D3F31F480910B028E7F80932C
:1034B0000B0290CF8E3F21F480910B028D7FF7CFCE
:1034C0008F3F09F087CF80910B028B7FF0CF8DE08B
:1034D00092E00E94A80A0E94261790930A02809305
:1034E000090208951F93CF93DF9380910902909171
:1034F0000A020E943217AC0190910C022091060141
:1035000030E0911106C0209107018AE0289F9001C8
:1035100011244217530780F080910E02C0910F02D0
:1035200010911002D091110281110AC0C11178C00E
:10353000111176C0D11174C0DF91CF911F91089500
:103540009F3F19F09F5F90930C02181624F40E947D
:10355000F81880930E0280910E0287FF05C00E942A
:10356000F818819580930E021C1624F40E94F81816
:1035700080930F0280910F0287FF05C00E94F81808
:10358000819580930F0260910E02662331F1C09104
:103590000F02CC2311F1062E000C770B880B990B30
:1035A0000E94412223E333E343E35FE30E94A52229
:1035B0000E94092260930E026C2FCC0F770B880BB0
:1035C000990B0E94412223E333E343E35FE30E942C
:1035D000A5220E94092260930F02111624F40E9472
:1035E0004219809310028091100287FF05C00E944B
:1035F00042198195809310021D1624F40E944219ED
:10360000809311028091110287FF05C00E94421928
:10361000819580931102DF91CF911F910C94671ACD
:103620009F3F09F08FCFA0CF85E0EDE0F2E0DF0112
:103630001D928A95E9F710920C0210920B020895E0
:10364000809132020895CF93DF9300D01F92CDB7BF
:10365000DEB79C0180913E02843019F593E0998396
:103660003B832A839093E9008FEF9091E80081508B
:1036700095FD06C095ED9A95F1F700008111F5CF03
:103680008091E80085FF0DC050E040E063E070E00D
:10369000CE0101960E947E1D8091E8008E77809376
:1036A000E8000F900F900F90DF91CF910895CF9386
:1036B000DF9300D01F92CDB7DEB720913E022430B9
:1036C00031F522E02983805891099B838A8383E026
:1036D0008093E9008FEF9091E800815095FD06C03E
:1036E00095ED9A95F1F700008111F5CF8091E800F2
:1036F00085FF0DC050E040E063E070E0CE01019630
:103700000E947E1D8091E8008E778093E8000F90E4
:103710000F900F90DF91CF9108959C0180913E0210
:103720008430F9F482E08093E9009FEF8091E80013
:10373000915085FD06C085ED8A95F1F70000911145
:10374000F5CF8091E80085FF0CC050E040E065E0D7
:1037500070E0C9010E947E1D8091E8008E77809301
:10376000E8000895CF93DF93EC0180913E0284300E
:10377000F1F4909112019923E9F09091380297FFAA
:1037800019C08093E9008FEF9091E800815095FD7A
:1037900006C095E19A95F1F700008111F5CF80916F
:1037A000E80050E040E060E270E085FD1AC0DF9183
:1037B000CF91089581E08093E9008FEF9091E80028
:1037C000815095FD06C095ED9A95F1F700008111A5
:1037D000F5CF8091E80085FFEACF50E040E068E057
:1037E00070E0CE010E947E1D8091E8008E7780936C
:1037F000E80080E2FE01A2E1B2E001900D928A951C
:10380000E1F7D5CF80913D02811109C00E940E1FC2
:103810000E946B1F8091E20084608093E200089513
:1038200010923D020895089508950C94EE1642E01A
:1038300061EC81E00E948C1E42E061EC82E00E941B
:103840008C1E42E061EC83E00E948C1E42E261EC3F
:1038500084E00C948C1E80914002833009F455C0A2
:1038600030F4813071F1823009F491C008958A30CA
:1038700009F47DC08B3009F463C0893009F044C07D
:1038800080913F02813209F03FC0809143029091C4
:103890004402009711F00397B9F58091E800877F03
:1038A0008093E8008091E80082FF2AC08091F100B7
:1038B000809332028091E8008B778093E8000C942B
:1038C000C01E80913F02813AF9F48091E800877F21
:1038D0008093E8008091430290914402892B61F427
:1038E00060E282E192E070E00E94CD1D8091E800EC
:1038F0008B778093E800089560E090E080E0F3CF5C
:1039000080913E028111CECF089580913F02813A8D
:10391000D9F78091430290914402892BA9F78091B5
:10392000E800877F8093E8008091E80080FFFCCF6B
:10393000809112018093F1008091E8008E77BDCFD5
:1039400080913F02813201F78091430290914402BD
:10395000892BD1F68091E800877F8093E8000E9450
:10396000C01E80914102809312010C946D0F8091D2
:103970003F02813249F68091E800877F8093E8001A
:103980000E94C01E8091420280933302089580916C
:103990003F02813A09F0B8CF8091E800877F809399
:1039A000E8008091E80080FFFCCF80913302C2CF15
:1039B00084B7877F84BF0FB6F894A8958091600084
:1039C000886180936000109260000FBE80E8809351
:1039D0006100109261000E94E00A0E940E1F0E9486
:1039E0006B1F8091E20084608093E20078940E94D3
:1039F000ED210E94E20A88E091E00E948C0A809109
:103A00003E02853019F00E94E80AF9CF0E94AB16F9
:103A100080913C02882399F30E94D916882379F378
:103A20000E94681DECCF292F33272330310579F10F
:103A300058F421303105F1F02230310519F190E0D0
:103A400080E030E020E01AC02132310599F12232C5
:103A50003105A9F7643098F770E0FB01EE0FFF1F06
:103A6000E75DFE4F208131816B5D7E4FFB018081E0
:103A700090E004C082E190E022E739E0FA0131836E
:103A8000208308958DE690E025E039E0F7CF99276F
:103A90008130910561F028F0029789F6E5EDF8E0B4
:103AA00002C0E1E0F9E0849190E09F01E7CFE9EE08
:103AB000F8E0F9CF643008F0C2CFE62FF0E0EE0F67
:103AC000FF1FEF5CFE4F2081318189E090E0D6CF6F
:103AD00080E189BD82E189BD09B400FEFDCF8091FE
:103AE000D8008F7D8093D8008091E0008260809321
:103AF000E0008091E00081FDFCCF0895AF92BF927D
:103B0000CF92DF92FF920F931F93CF93DF936C01BD
:103B1000EB018A010E94DF1EF82E811123C00115DE
:103B2000110539F0F80180819181C81BD90BC80EAD
:103B3000D91EB12CA12C2097A9F08091E80085FD19
:103B400022C08091E8008E778093E800011511056E
:103B5000A1F0F80180819181A80EB91EB182A082E6
:103B600085E0F82E8F2DDF91CF911F910F91FF905F
:103B7000DF90CF90BF90AF9008950E94DF1E882302
:103B8000D1F2F82EEFCFF60181916F018093F10011
:103B90002197FFEFAF1ABF0ACECFFC0180914502FB
:103BA0009091460286179707A0F06115710529F4D8
:103BB0009091E8009E779093E80090E06115710580
:103BC00051F4911108C08091E80082FF35C080E077
:103BD0000895BC01F2CF80913E028823C9F185305F
:103BE000C9F18091E80083FD31C08091E80082FD39
:103BF000EACF8091E80080FFE1CF2091F30080912F
:103C0000F200322F282F6115710519F02830310587
:103C100058F091E02830310509F090E02091E8005B
:103C20002E772093E800CACF81918093F1006150F4
:103C300071092F5F3F4FE7CF80913E02882341F00B
:103C4000853041F08091E80083FFBDCF81E0089589
:103C500082E0089583E00895FC01809145029091EF
:103C6000460286179707A0F06115710529F4809127
:103C7000E8008E778093E80090E06115710551F4BB
:103C8000911108C08091E80082FF36C080E008955D
:103C9000BC01F2CF80913E028823D1F18530D1F171
:103CA0008091E80083FD32C08091E80082FDEACF78
:103CB0008091E80080FFE1CF2091F3008091F20035
:103CC000322F282F6115710519F02830310558F071
:103CD00091E02830310509F090E08091E8008E777E
:103CE0008093E800CACF84918093F10031966150AF
:103CF00071092F5F3F4FE6CF80913E02882341F04C
:103D0000853041F08091E80083FFBCCF81E00895C9
:103D100082E0089583E00895982F973028F08F70FF
:103D20008093E90081E008959093E900242F762F95
:103D300050E0981731F07091EC002091ED00509117
:103D4000F00021FD02C09F5FE8CF3091EB003E7F85
:103D50003093EB003091ED003D7F3093ED003091DA
:103D6000EB0031603093EB007093EC002093ED009A
:103D70005093F0002091EE0027FDE5CF80E00895FC
:103D800080913F0287FF13C08091E80082FF06C048
:103D90008091E8008B778093E80004C080913E0218
:103DA0008111F2CF089580913E028823D9F380914A
:103DB000E80080FFF8CF8091E8008E77ECCF20916B
:103DC000E4003091E50085E69091EC0090FF06C09C
:103DD0009091E80090FF06C080E008959091E8007F
:103DE00092FDFACF90913E02992391F0953091F097
:103DF0009091EB0095FD10C04091E4005091E500DA
:103E00002417350709F381509A01F1F684E00895EB
:103E100082E0089583E0089581E008950E947C1F68
:103E20000E94841FE0EEF0E0808181608083E8EDF5
:103E3000F0E080818F77808319BCA7EDB0E08C9192
:103E40008E7F8C9380818F7E808310923D020895B7
:103E50000F931F93CF93DF930E947C1F0E94841FB8
:103E6000C8EDD0E088818F778883888180688883D7
:103E700088818F7D888319BC10923E0210923A028D
:103E800010923C0210923B0200EE10E0F80180819B
:103E90008B7F808388818160888342E060E080E05E
:103EA0000E948C1EE1EEF0E080818E7F8083E2EE46
:103EB000F0E0808181608083808188608083F80168
:103EC00080818E7F8083888180618883DF91CF911C
:103ED0001F910F910895E8EDF0E080818F7E80833F
:103EE000E7EDF0E080818160808384E082BF81E043
:103EF00080933D020C94281FE8EDF0E080818E7FD6
:103F000080831092E20008951092DA001092E1008E
:103F100008951F920F920FB60F9211242F933F9383
:103F20004F935F936F937F938F939F93AF93BF93C1
:103F3000EF93FF938091E10082FF0BC08091E2003C
:103F400082FF07C08091E1008B7F8093E1000E9497
:103F5000EC218091DA0080FF19C08091D80080FFA9
:103F600015C08091DA008E7F8093DA008091D900AD
:103F700080FF94C080E189BD82E189BD09B400FE63
:103F8000FDCF81E080933E020E94021C8091E100FF
:103F900080FF19C08091E20080FF15C08091E2008F
:103FA0008E7F8093E2008091E20080618093E20046
:103FB0008091D80080628093D80019BC85E08093FE
:103FC0003E020E94141C8091E10084FF29C0809170
:103FD000E20084FF25C080E189BD82E189BD09B48A
:103FE00000FEFDCF8091D8008F7D8093D800809116
:103FF000E1008F7E8093E1008091E2008F7E8093CC
:10400000E2008091E20081608093E20080913A02B8
:10401000882309F449C084E080933E020E94151C65
:104020008091E10083FF29C08091E20083FF25C0D9
:104030008091E100877F8093E10082E080933E02DF
:1040400010923A028091E1008E7F8093E10080918E
:10405000E2008E7F8093E2008091E2008061809395
:10406000E20042E060E080E00E948C1E8091F0005F
:1040700088608093F0000E94131CFF91EF91BF9124
:10408000AF919F918F917F916F915F914F913F91F0
:104090002F910F900FBE0F901F90189519BC109282
:1040A0003E020E94101C72CF8091E30087FD02C087
:1040B00081E0B2CF83E0B0CF1F920F920FB60F9284
:1040C00011242F933F934F935F936F937F938F931D
:1040D0009F93AF93BF93CF93EF93FF93C091E9006A
:1040E000CF708091EC001092E9008091F000877F02
:1040F0008093F00078940E9498201092E9008091BB
:10410000F00088608093F000C093E900FF91EF9188
:10411000CF91BF91AF919F918F917F916F915F915F
:104120004F913F912F910F900FBE0F901F901895B8
:104130001F93CF93DF93CDB7DEB7AA970FB6F8944E
:10414000DEBF0FBECDBFEFE3F2E08091F1008193BF
:1041500022E0E734F207C9F70E942B1C8091E800A7
:1041600083FF42C080913F02909140029A3008F054
:104170003BC0E92FF0E0E154FF4D0C944E23C920E1
:10418000ED20F420ED20F42048216A21F420BF2105
:10419000CC21803879F0823839F5809143028F70D4
:1041A0008093E9008091EB0085FB882780F91092CD
:1041B000E90006C080913B0290913C02911182601F
:1041C0009091E800977F9093E8008093F10010921F
:1041D000F1008091E8008E772DC0282F2D7F21F4EB
:1041E0008823D1F0823059F18091E80083FF0AC022
:1041F0008091E800877F8093E8008091EB008062E7
:104200008093EB00AA960FB6F894DEBF0FBECDBF29
:10421000DF91CF911F91089580914102813021F764
:10422000933009F080E080933C021092E900809185
:10423000E800877F8093E8000E94C01ED5CF809160
:1042400041028111F2CF809143028F7069F2809315
:10425000E9002091EB0020FFE8CF933031F480910A
:10426000EB0080628093EB00E0CF9091EB009061D7
:104270009093EB0021E030E001C0220F8A95EAF72D
:104280002093EA001092EA008091EB008860EACF68
:104290008111AACF109141021F778091E3008078AD
:1042A000812B8093E3008091E800877F8093E80072
:1042B0000E94C01E8091E80080FFFCCF8091E30047
:1042C00080688093E30083E0111101C082E0809355
:1042D0003E028ACF8058823008F086CF809141021A
:1042E000909142028C3D23E09207A1F583E08A83FE
:1042F0008AE289834FB7F894DE01139620E03EE00E
:1043000051E2E32FF0E050935700E49120FF03C007
:10431000E295EF703F5FEF708E2F90E0EA30C0F0D3
:10432000C7968D939D932F5F243159F74FBF80918E
:10433000E800877F8093E8006AE270E0CE01019692
:104340000E94CD1D8091E8008B778093E8004CCFD0
:10435000C096E7CFAE014F5F5F4F609143020E946E
:10436000131DBC01892B09F43FCF9091E800977F82
:104370009093E80089819A810E942C1EE3CF8038B7
:1043800009F032CF8091E800877F8093E800809128
:104390003A028093F1001DCF811126CF9091410206
:1043A000923008F021CF8091E800877F8093E80069
:1043B00090933A020E94C01E80913A02882331F005
:1043C00084E080933E020E94171C0ECF8091E30090
:1043D00087FDF6CF81E0F5CF0895CF9380913E021F
:1043E000882399F0C091E900CF708091EC0080FDA6
:1043F0000EC080E0C82B1092E9008091E80083FD98
:104400000E949820CF70C093E900CF91089580E872
:10441000F1CF0E9410226894B1110C949F2208954C
:104420000E94842288F09F5798F0B92F9927B7519E
:10443000B0F0E1F0660F771F881F991F1AF0BA9548
:10444000C9F714C0B13091F00E949E22B1E00895E6
:104450000C949E22672F782F8827B85F39F0B93FD8
:10446000CCF3869577956795B395D9F73EF49095FB
:104470008095709561957F4F8F4F9F4F0895E89479
:1044800009C097FB3EF490958095709561957F4F9C
:104490008F4F9F4F9923A9F0F92F96E9BB2793954A
:1044A000F695879577956795B795F111F8CFFAF45A
:1044B000BB0F11F460FF1BC06F5F7F4F8F4F9F4F8B
:1044C00016C0882311F096E911C0772321F09EE8E9
:1044D000872F762F05C0662371F096E8862F70E04F
:1044E00060E02AF09A95660F771F881FDAF7880F29
:1044F0009695879597F9089557FD9058440F551F45
:1045000059F05F3F71F04795880F97FB991F61F055
:104510009F3F79F087950895121613061406551FCC
:10452000F2CF4695F1DF08C0161617061806991F38
:10453000F1CF86957105610508940895E894BB272D
:1045400066277727CB0197F908950E94B8220C942B
:1045500029230E941B2338F00E94222320F0952358
:1045600011F00C9412230C94182311240C949F2204
:104570000E947C2270F3959FC1F3950F50E0551F68
:10458000629FF001729FBB27F00DB11D639FAA27A8
:10459000F00DB11DAA1F649F6627B00DA11D661FF7
:1045A000829F2227B00DA11D621F739FB00DA11D18
:1045B000621F839FA00D611D221F749F3327A00DD2
:1045C000611D231F849F600D211D822F762F6A2F6E
:1045D00011249F5750409AF0F1F088234AF0EE0FD3
:1045E000FF1FBB1F661F771F881F91505040A9F700
:1045F0009E3F510580F00C9412230C949F225F3F44
:10460000E4F3983ED4F3869577956795B795F7953B
:10461000E7959F5FC1F7FE2B880F911D96958795B3
:1046200097F9089597F99F6780E870E060E0089532
:104630009FEF80EC089500240A94161617061806BA
:104640000906089500240A94121613061406050696
:104650000895092E0394000C11F4882352F0BB0F27
:1046600040F4BF2B11F460FF04C06F5F7F4F8F4F8A
:104670009F4F089597FB072E16F4009407D077FDFF
:1046800009D00E94542307FC05D03EF490958195F3
:104690009F4F0895709561957F4F0895EE0FFF1F0E
:1046A0000590F491E02D0994AA1BBB1B51E107C0B2
:1046B000AA1FBB1FA617B70710F0A61BB70B881FB2
:1046C000991F5A95A9F780959095BC01CD01089541
:1046D000F999FECF92BD81BDF89A992780B50895CA
:1046E000A8E1B0E042E050E00C949023262FF99925
:1046F000FECF92BD81BDF89A019700B4021639F041
:104700001FBA20BD0FB6F894FA9AF99A0FBE089511
:104710000196272F0E9477230C947623DC01CB018E
:10472000FC01F999FECF06C0F2BDE1BDF89A3196C1
:1047300000B40D9241505040B8F70895F894FFCF5F
:10474000E4012808140A321E201BB21B8D1B571BC4
:10475000231B016697C63435F4F5F6F7313332364C
:104760009392919094404D3639400AF309BD0984E3
:0A4770000917093009490962090020
:00000001FF
